:020000040800F2
:10000000F8A60020C1010008451100083D110008B4
:100010004111000861070008652D0008000000007C
:100020000000000000000000000000001D28000883
:10003000810B00080000000019280008752800083E
:10004000DB010008DB010008DB010008DB01000820
:10005000DB010008DB010008DB010008DB01000810
:10006000DB010008DB010008DB010008DB01000800
:10007000DB010008DB010008DB010008DB010008F0
:10008000DB010008DB010008DB010008DB010008E0
:10009000DB010008DB010008DB010008DB010008D0
:1000A000DB010008DB010008DB010008DB010008C0
:1000B000DB010008DB010008DB010008DB010008B0
:1000C000DB010008DB010008DB010008DB010008A0
:1000D000DB010008DB010008DB010008DB01000890
:1000E000DB010008DB010008DB010008DB01000880
:1000F000DB010008DB010008DB010008DB01000870
:10010000DB010008DB010008DB010008DB0100085F
:10011000DB010008DB010008DB0100087929000889
:10012000C90A0008DB010008DB010008DB01000848
:10013000DB010008DB010008DB010008DB0100082F
:10014000DB010008DB010008DB010008DB0100081F
:10015000DB010008DB010008DB010008DB0100080F
:10016000DB010008DB010008DB010008DB010008FF
:10017000DB010008DB010008DB01000800000000D3
:10018000DB010008DB010008DB010008DB010008DF
:10019000DB010008DB010008DB01000800000000B3
:1001A000DB010008DB010008DB010008DFF80CD0F0
:1001B00000F054FA0048004785CC0308F8A6002058
:1001C0000648804706480047FEE7FEE7FEE7FEE7F1
:1001D000FEE7FEE7FEE7FEE7FEE7FEE77D28000814
:1001E000AD0100082DE9F05F0546002092469B46D0
:1001F00088460646814640241BE02846414647463D
:10020000224600F063F853465A46C01A914110D373
:1002100011461846224600F04AF82D1A67EB0108ED
:100220004F4622460120002100F041F817EB00095B
:100230004E41201EA4F10104DFDC484631462A4627
:100240004346BDE8F09F421C10F8011B0029FBD17A
:10025000801A704710B5002200E0521C835C8C5C51
:10026000A34201D1002BF8D1D8B2E1B2401A10BD9F
:10027000034611F8012B00F8012B002AF9D118468A
:10028000704730B50B46014600202022012409E0CA
:1002900021FA02F59D4205D303FA02F5491B04FA3F
:1002A00002F52844151EA2F10102F1DC30BD202A1E
:1002B00004DB203A00FA02F1002070479140C2F1BD
:1002C000200320FA03F3194390407047202A04DBEF
:1002D000203A21FA02F00021704721FA02F3D040BF
:1002E000C2F1200291400843194670472DE9FE4FA4
:1002F000804681EA0300C00F0C46009021F00041C7
:1003000023F00045B8EB0200A94105D24046214642
:1003100090461C460B46024623F00040104347D04F
:10032000270DC7F30A00C3F30A510290401A019047
:1003300040286BDAC3F3130040F4801B0098924608
:1003400020B10023D2EB030A63EB0B0B0198594653
:10035000C0F140025046FFF7AAFF06460D46504640
:100360005946019A00F08CF910EB08006141002415
:1003700087EA115284EAE7731A4340D0009A62B3C5
:10038000019A012A4FEA075215DC001B61EB0201BA
:100390004FF0004202EA0752CDE90042001C41F54D
:1003A000801132462B4600F08CF903B0BDE8F08F87
:1003B00040462146F9E7001B61EB0201001C41F5B4
:1003C000801300185B412018A2F5001747EB0301CA
:1003D00040EAD570B6196D4111E06D084FEA360656
:1003E00045EAC0754FEA0752001B61EB0201001C91
:1003F00041F5801149084FEA300000195141324659
:100400002B4603B0BDE8F04F00F04CB90098012234
:1004100040000023D0EB020263EBE073009821461A
:100420004FEAE074B8EB000061EB0401E9E783F008
:1004300000435BE781F0004158E72DE9FE4F81EA78
:10044000030404F0004421F0004100944FF0000B3D
:1004500023F0004350EA01045ED052EA03045BD06B
:10046000C3F30A54C1F30A552C44A4F2F3340194A3
:10047000A0FB0254C1F3130141F48011C3F3130331
:1004800043F4801301FB024400FB034E840A970AE5
:1004900044EA815447EA8357A4FB076802958D0A12
:1004A00005FB07854FEA932C04FB0C542705029D9E
:1004B0004FEA065847EA1637B5EB08056EEB070C0E
:1004C000870E920E47EA811742EA8312A7FB0201C8
:1004D000B6EB0B0164EB00042B0D43EA0C335E1802
:1004E00044EB1C50DA465146E7FB0201C5F3130406
:1004F0004FEA0B3343EA14534FEA0432019C43EAB8
:100500000603A4F10C040294009CCDE900B400F0B1
:10051000D8F803B0BDE8F08F00200146F9E72DE9D7
:10052000F04D81EA030404F0004B21F0004514462D
:100530004FF0000A23F0004150EA050220D054EAAF
:1005400001021DD0C5F30A570246C5F31303C1F3D8
:100550001300C1F30A5640F4801543F48013A7EB4F
:100560000608101BD64608F2FD3873EB050002D3CF
:1005700008F1010801E092185B41B8F1000F03DABD
:1005800000200146BDE8F08D00204FF480110646A2
:1005900084460EE0171B73EB050705D3121B63EBB4
:1005A000050306434CEA010C49084FEA3000921853
:1005B0005B4150EA0107EDD152EA030012D082EA12
:1005C000040083EA0501084305D0101BAB4106D2A5
:1005D0000122002306E000224FF0004302E06FF00A
:1005E000010253101AEB06004CEB085110EB0A0005
:1005F00041EB0B01BDE8F04D00F054B8C1F30A52D5
:10060000C1F3130140F2FF3341F480119A4202DA40
:1006100000200146704740F233439A42A2F233422F
:1006200002DC5242FFF752BEFFF741BE30B5041E56
:1006300071F1000404DB4FF00044404264EB01011F
:10064000141E73F1000405DB1C464FF000435242B8
:1006500063EB0403994208BF904230BD064C074D3E
:1006600006E0E06840F0010394E807009847103482
:10067000AC42F6D3FFF79EFD7CA004089CA00408C2
:10068000202A06DBCB17203A41FA02F043EAE07356
:1006900006E041FA02F3D040C2F120029140084343
:1006A0001946704710B5141E73F1000408DA401C97
:1006B00041F1000192185B411A4301D120F0010081
:1006C00010BD2DE9F04D92469B4611B1B1FA81F271
:1006D00002E0B0FA80F220329046FFF7E8FD0446CF
:1006E0000F4640EA0A0041EA0B0153465A460843C6
:1006F00013D0114653EA010019D0C8F14002504608
:10070000FFF7E4FD05460E46504659464246FFF7C0
:10071000CEFD084305D0012004E020463946BDE85F
:10072000F08D0020054346EAE0762C4337430A98D3
:100730006305E40AA0EB08000022FD0A44EA4754DE
:100740000A3002D500200146E9E701051019694188
:10075000DDE9084500196941BDE8F04DA2E7000058
:10076000FFE7FEE780B5022009F060FC80BD0000D5
:1007700080B584B040F20040C4F2020002904021F3
:10078000039118F0EBFE0298012280230193114699
:1007900018F01EFFFFF7E6FF0199029818F0DEFE41
:1007A000FFF7E0FF0298039918F0E0FEFFF7DAFF89
:1007B0000298039918F0D2FE04B080BD80B588B0CD
:1007C00040F6014002903DF0A9FF40F20040C4F223
:1007D000020004900122039240230193114618F075
:1007E000F7FE019B0498002105910222069218F061
:1007F0003DFF02983DF092FF039A049880230793EF
:10080000114618F0E5FE04980599069A079B18F022
:100810002DFF08B080BD000080B584B040F20040DC
:10082000C4F2020002904021039118F097FE029852
:10083000012280230193114618F0CAFEFFF792FFB0
:100840000199029818F092FEFFF78CFF0298039925
:1008500018F08CFEFFF786FF0298039918F07EFED1
:1008600004B080BD80B584B08DF80F0000210291E6
:100870008DF80D1040F20040C4F2020001228023E6
:1008800018F0A6FE1E2009F0D1FB02988DF80E008C
:10089000FFE79DF80E00072827DCFFE740F2004045
:1008A000C4F2020001904021009118F057FEFFF7BA
:1008B00059FF0099019818F059FE01989DF80D1004
:1008C00049008DF80D10802118F06CFE30B1FFE763
:1008D0009DF80D0001308DF80D00FFE7FFE79DF852
:1008E0000E0001308DF80E00D3E79DF80F0018B907
:1008F000FFE7FFF791FF02E0FFF73AFFFFE79DF800
:100900000D0004B080BD000080B584B08DF80F00EC
:1009100040F20040C4F202000290012280231146FE
:1009200018F056FE0298402118F018FEFFF71AFF43
:1009300000208DF80E00FFE79DF80E00072834DC3C
:10094000FFE79DF80F100020B0EBD11F08D0FFE7A4
:1009500040F20040C4F20200802118F007FE07E0D8
:1009600040F20040C4F20200802118F0F7FDFFE7DA
:100970009DF80F0040008DF80F0040F20040C4F2D7
:10098000020000904021019118F0F0FDFFF7EAFE0F
:100990000098019918F0E2FDFFF7E4FEFFE79DF8EB
:1009A0000E0001308DF80E00C6E704B080BD0000D7
:1009B00080B584B040F20040C4F2020002900122EF
:1009C00080230193114618F003FE0199029818F054
:1009D000CDFD02984021039118F0C8FD1E2009F0BA
:1009E00025FB0199029818F0B9FDFFF7BBFE0298AC
:1009F000039918F0B3FD04B080BD000080B582B04B
:100A000040F20040C4F202000090012280230193D2
:100A1000114618F0DDFD0098402118F0A7FD1E20BA
:100A200009F004FB0098019918F098FDFFF79AFE71
:100A30000098019918F09AFD02B080BD80B584B08D
:100A400000218DF80E1040F20040C4F20200029026
:100A500001228023019318F0BBFD0199029818F040
:100A600085FD0298402118F081FDFFF77BFEFFE72E
:100A700040F20040C4F20200802118F093FD98B1CA
:100A8000FFE79DF80E0001308DF80E009DF80E0076
:100A9000FB2806DBFFE7FFF7B1FF01208DF80F0011
:100AA0000DE0FFF75FFEE3E740F20040C4F2020012
:100AB000402118F053FD00208DF80F00FFE79DF84E
:100AC0000F0004B080BD000080B546F20040C4F2C3
:100AD00002000021202209F0A3FC00284ED0FFE7ED
:100AE00046F20040C4F202000021202209F064FC1A
:100AF00048F2F460C2F20000016801310160006850
:100B000048F2F061C2F200010968884207DDFFE7A0
:100B100040F2D030C2F2000022F010FE2DE048F288
:100B2000E862C2F20002106848F2E463C2F2000315
:100B30001968A0EB010C40F2A030C2F2000001687D
:100B400001EB4C0102310160006840F2E001C2F2A9
:100B50000001096848F2F46CC2F2000CDCF800C035
:100B6000CCEB0C1C1B6803EB4C1C01EB4C0112681A
:100B7000D21A013209F0BCFEFFE7FFE780BD00009A
:100B80007047000080B588B000200290ADF81C00CE
:100B900006908DF81700ADF814008DF8140040F69B
:100BA00003403DF0BBFD029A40F60040C4F2020053
:100BB000019001214FF40063039318F009FD01989F
:100BC0000299039B022218F051FDFFF7F7FD0198EF
:100BD000029A039B114618F0FBFC642009F012FAFC
:100BE00048F2401006A90491042200F07BF8049911
:100BF00049F67030C0F6040044F0DCFA08F06AF8F8
:100C0000049849F69931C0F60401FFF723FB002848
:100C100060D1FFE748F25000009006A9012200F0E1
:100C200061F89DF8181049F67E30C0F6040044F0D3
:100C3000C1FA009840F2F001C2F20001EF2200F088
:100C400051F849F64D30C0F6040044F0B3FA0020E4
:100C50008DF81700FFE79DF81700EE2830DCFFE75E
:100C60009DF8171040F2F000C2F20000415C49F616
:100C70009130C0F6040044F09DFA9DF8170046F24A
:100C80006562CEF266624CF6CD41CCF6CC4100FBFB
:100C900001204FEA700049F69811C1F69911884277
:100CA00007D8FFE749F68E30C0F6040044F082FA18
:100CB000FFE7FFE79DF8170001308DF81700CAE73E
:100CC00049F68E30C0F6040044F074FA00208DF826
:100CD0001F0003E001208DF81F00FFE79DF81F00B3
:100CE00008B080BD80B584B0ADF80E0002918DF8DB
:100CF0000720FFF75DFE2820FFF706FEFFF79EFEA8
:100D00009DF80F00FFF700FEFFF798FE9DF80E001C
:100D1000FFF7FAFDFFF792FEFFF74AFE2920FFF7E3
:100D2000F3FDFFF78BFE00208DF80600FFE79DF82E
:100D300006009DF80710884215DAFFE79DF80600C7
:100D40009DF807100139401A18BF0120FFF78AFDEE
:100D500002999DF806208854FFE79DF806000130AF
:100D60008DF80600E3E7FFF749FE04B080BD000000
:100D700080B584B08DF80F0000208DF80A008DF842
:100D8000090040F2DF10C2F2000001780131017069
:100D9000007849F69812C1F699124CF6CD41CCF67E
:100DA000CC4100FB01204FEA700049F69911C1F6D1
:100DB0009911884209D3FFE740F2DF10C2F2000028
:100DC0000078092800F33981FFE748F24E100DF151
:100DD0000F010122FFF786FF9DF80F000006002893
:100DE00011D5FFE79DF80F0000F00F0005280ADC81
:100DF000FFE700208DF8080048F24E1002A90122FA
:100E000000F056F9FFE79DF80F000007002800F0FA
:100E10001381FFE79DF80F0000F00F00052800F395
:100E20000B81FFE79DF80F0000F00F01FF208840C5
:100E30008DF8080048F2BC61C2F20001087D8DF80F
:100E400007009DF80820C02060EA020008750888A5
:100E500008814889488200208DF80A00FFE79DF844
:100E60000A00042800F3A580FFE748F2BC60C2F244
:100E70000000007D9DF80A10C840C007002800F05F
:100E80009180FFE79DF80A1045F69630C0F6040001
:100E900030F811000DF10B010422FFF723FF48F297
:100EA000BC60C2F2000090F82400C007D0B1FFE798
:100EB0009DF80B009DF80C1040EA01209DF80A20D7
:100EC00048F2BC61C2F2000121F812009DF80D0049
:100ED0009DF80E2040EA02209DF80A2001EB420115
:100EE000488119E09DF80B009DF80C1040EA0120A4
:100EF0009DF80A2048F2BC61C2F2000121F81200FC
:100F00009DF80D009DF80E2040EA02209DF80A2071
:100F100001EB42014881FFE79DF80A1048F2BC60EE
:100F2000C2F2000030F8110001283ADBFFE79DF81B
:100F30000A1048F2BC60C2F2000030F81100B0F5AF
:100F4000F07F2EDAFFE79DF80A1048F2BC60C2F28B
:100F5000000000EB41004089012822DBFFE79DF8FB
:100F60000A1048F2BC60C2F2000000EB4100408968
:100F7000B0F5487F15DAFFE79DF80A3048F2BC610A
:100F8000C2F2000101EB430031F8132040896946A9
:100F9000086049F65C30C0F60400194644F00AF9CE
:100FA000FFE7FFE7FFE79DF80A0001308DF80A0030
:100FB00055E701208DF8090048F2BC60C2F200003C
:100FC0000088B0F5806F09DCFFE748F2BC60C2F230
:100FD00000004089B0F5806F26DDFFE79DF80F0027
:100FE00000F00F0002280FDBFFE748F2BC61C2F2FD
:100FF0000001488808808889488140F2DF11C2F2E8
:101000000001002008700EE048F2BC61C2F200014D
:1010100008890880488A488180208DF80F009DF853
:1010200007000875FFE706E040F2DF11C2F2000199
:1010300000200870FFE7FFE7FFE79DF80F0000F0D2
:101040008F00802820D1FFE748F2BC60C2F2000088
:10105000007D0006002809D5FFE748F2BC61C2F216
:101060000001087D00F07F0008750CE048F2BC61CB
:10107000C2F200014FF6FF7008804881087D00F041
:10108000E0000875FFE7FFE740F2DF10C2F2000062
:101090000078F12807DBFFE740F2DF11C2F2000120
:1010A0000A200870FFE79DF8090004B080BD000029
:1010B00080B584B0ADF80E0002918DF807200020B5
:1010C00000908DF80500FFF773FC2820FFF71CFC4B
:1010D000FFF7B4FC9DF80F00FFF716FCFFF7AEFC1E
:1010E0009DF80E00FFF710FCFFF7A8FC00988DF8A4
:1010F0000600FFE79DF806009DF80710884216DA03
:10110000FFE702989DF80610405CFFF7FDFBFFF734
:1011100095FC8DF805009DF8050008B1FFE706E095
:10112000FFE79DF8060001308DF80600E2E7FFF7C3
:1011300065FC9DF8050004B080BD0000FFE7FEE7F8
:10114000FFE7FEE77047000080B5C0B040F60440FE
:1011500001903DF0E3FA41F20000C4F20200059074
:101160000122339240230693114618F031FA059874
:10117000069B00213C9102223A9218F077FA0198DE
:101180003DF0CCFA0598339A04230493114618F0E5
:101190001FFA049B05983A9A3C9918F067FA01984F
:1011A0003DF0BCFA0598339A10231F93114618F0AE
:1011B0000FFA05981F9B3A9A3C9918F057FA40F697
:1011C000034002903DF0AAFA339A40F60040C4F280
:1011D000020007904FF480530893114618F0F8F975
:1011E0000798089B3A9A3C9918F040FA02983DF00B
:1011F00095FA0798339A4FF400530393114618F069
:10120000E7F9039B07983A9A3C9918F02FFA03994B
:10121000079818F0A3F904990598339A18F0AEF9D5
:1012200005981F99339A18F0A9F905980699339AE9
:1012300018F0A4F9C82008F0E5FE07980899339A39
:1012400018F09CF90A203F9008F0DCFE07980899F6
:101250003C9A18F093F9322008F0D4FE07980899C8
:10126000339A18F08BF9962008F0CCFE4FF47040BA
:10127000229001F0D3FD55203D9001F0FBFD4FF28F
:101280000100239001F0CAFDAA20249001F0F2FD94
:101290004FF20200259001F0C1FD5220269001F08E
:1012A000E9FD4FF20300279001F0B8FD08202890D7
:1012B00001F0E0FD4FF20400299001F0AFFD3398FA
:1012C00001F0D8FD4FF4304001F0A8FD0D20099049
:1012D00001F0D0FD4BF2010001F0A0FD099801F0F2
:1012E000C9FD4BF2020001F099FD099801F0C2FD21
:1012F0004FF436402E9001F091FD3420169001F00D
:10130000B9FD4BF2016001F089FD169801F0B2FDC4
:101310004BF2026001F082FD169801F0ABFD4FF434
:1013200031402C9001F07AFD099801F0A3FD4BF2B9
:1013300001102D9001F072FD099801F09BFD4BF218
:10134000021001F06BFD099801F094FD4FF4374055
:101350002F9001F063FD169801F08CFD4BF20170A7
:10136000309001F05BFD169801F084FD4BF20270A5
:1013700001F054FD169801F07DFD4FF4324001F06C
:101380004DFD3C9801F076FD4BF2012001F046FD49
:101390003C9801F06FFD4BF2022001F03FFD3C98BC
:1013A00001F068FD4FF43840329001F037FD242001
:1013B0000B9001F05FFD4BF60100349001F02EFD23
:1013C0000B9801F057FD4BF60200359001F026FD19
:1013D0000B9801F04FFD4FF43F4001F01FFD339893
:1013E00001F048FD4FF433402A9001F017FD0F2023
:1013F0000A9001F03FFD4BF2013001F00FFD0A9819
:1014000001F038FD4BF2023001F008FD0A9801F0BE
:1014100031FD4FF4394001F001FD169801F02AFD2D
:101420004BF6011001F0FAFC169801F023FD4BF683
:10143000021001F0F3FC169801F01CFD4FF435404A
:101440002B9001F0EBFC289801F014FD4BF20150B9
:1014500001F0E4FC289801F00DFD4BF2025001F080
:10146000DDFC289801F006FD4FF4424001F0D6FC67
:101470000320369001F0FEFC4FF43A4001F0CEFC20
:101480000B9801F0F7FC4BF6012001F0C7FC0B981C
:1014900001F0F0FC4BF6022001F0C0FC0B9801F0CB
:1014A000E9FC4FF43C40379001F0B8FC3C9801F067
:1014B000E1FC4BF60140389001F0B0FC78203E9002
:1014C00001F0D8FC4BF60240399001F0A7FC3C98A3
:1014D00001F0D0FC4FF43D4001F0A0FC3C9801F03D
:1014E000C9FC4BF6015001F099FC3E9801F0C2FC9A
:1014F0004BF6025001F092FC3C9801F0BBFC4FF41B
:101500003E4001F08BFC3C9801F0B4FC4BF60160CE
:1015100001F084FC642001F0ADFC4FF4514001F077
:101520007DFC3C9801F0A6FC4DF2011001F076FC28
:101530003320209001F09EFC4DF2021001F06EFC71
:101540003C9801F097FC4DF2031001F067FC1698EF
:1015500001F090FC4DF2041001F060FC3C9801F0A9
:1015600089FC4DF2051001F059FC3A200C9001F075
:1015700081FC4DF2061001F051FC3C9801F07AFC20
:101580004DF2071001F04AFC4A200D9001F072FC68
:101590004DF2081001F042FC3C9801F06BFC4DF25A
:1015A000091001F03BFC5C200E9001F063FC4DF251
:1015B0000A1001F033FC3C9801F05CFC4DF20B107A
:1015C00001F02CFC81200F9001F054FC4DF20C1026
:1015D00001F024FC3C9801F04DFC4DF20D1001F09F
:1015E0001DFCA620109001F045FC4DF20E1001F0FC
:1015F00015FC3C9801F03EFC4DF20F1001F00EFC82
:10160000E520119001F036FC4DF2101001F006FCBF
:10161000339801F02FFC4DF2111001F0FFFB132065
:10162000129001F027FC4DF2121001F0F7FB3398F5
:1016300001F020FC4DF2131001F0F0FB5420139048
:1016400001F018FC4DF2141001F0E8FB339801F0A2
:1016500011FC4DF2151001F0E1FB8220149001F015
:1016600009FC4DF2161001F0D9FB339801F002FC91
:101670004DF2171001F0D2FBCA20159001F0FAFBD1
:101680004DF2181001F0CAFB3A9801F0F3FB4DF24D
:10169000191001F0C3FB3C9801F0ECFB4DF21A105D
:1016A00001F0BCFB3A9801F0E5FB4DF21B1001F094
:1016B000B5FB339801F0DEFB4DF21C1001F0AEFBE0
:1016C0003A9801F0D7FB4DF21D1001F0A7FB1698D8
:1016D00001F0D0FB4DF21E1001F0A0FB3A9801F092
:1016E000C9FB4DF21F1001F099FB6720179001F024
:1016F000C1FB4DF2201001F091FB3A9801F0BAFBCA
:101700004DF2211001F08AFB8420189001F0B2FB09
:101710004DF2221001F082FB3A9801F0ABFB4DF242
:10172000231001F07BFBA420199001F0A3FB4DF2E4
:10173000241001F073FB3A9801F09CFB4DF2251048
:1017400001F06CFBB7201A9001F094FB4DF22610CB
:1017500001F064FB3A9801F08DFB4DF2271001F087
:101760005DFBCF201B9001F085FB4DF2281001F0AE
:1017700055FB3A9801F07EFB4DF2291001F04EFB2B
:10178000DE201C9001F076FB4DF22A1001F046FBA2
:101790003A9801F06FFB4DF22B1001F03FFBF22065
:1017A0001D9001F067FB4DF22C1001F037FB3A98C9
:1017B00001F060FB4DF22D1001F030FBFE201E9079
:1017C00001F058FB4DF22E1001F028FB369801F085
:1017D00051FB4DF22F1001F021FB1F9801F04AFB45
:1017E0004DF2301001F01AFB369801F043FB4DF238
:1017F000311001F013FB209801F03CFB4DF2321048
:1018000001F00CFB369801F035FB4DF2331001F07E
:1018100005FB6D20219001F02DFB4FF4524001F0AB
:10182000FDFA3C9801F026FB4DF2012001F0F6FA9A
:10183000209801F01FFB4DF2022001F0EFFA3C98D6
:1018400001F018FB4DF2032001F0E8FA169801F0C0
:1018500011FB4DF2042001F0E1FA3C9801F00AFB83
:101860004DF2052001F0DAFA0C9801F003FB4DF27D
:10187000062001F0D3FA3C9801F0FCFA4DF2072063
:1018800001F0CCFA0D9801F0F5FA4DF2082001F0C4
:10189000C5FA3C9801F0EEFA4DF2092001F0BEFACB
:1018A0000E9801F0E7FA4DF20A2001F0B7FA3C98E1
:1018B00001F0E0FA4DF20B2001F0B0FA0F9801F0C0
:1018C000D9FA4DF20C2001F0A9FA3C9801F0D2FAB5
:1018D0004DF20D2001F0A2FA109801F0CBFA4DF272
:1018E0000E2001F09BFA3C9801F0C4FA4DF20F2053
:1018F00001F094FA119801F0BDFA4DF2102001F0B8
:101900008DFA339801F0B6FA4DF2112001F086FA03
:10191000129801F0AFFA4DF2122001F07FFA3398DD
:1019200001F0A8FA4DF2132001F078FA139801F0B3
:10193000A1FA4DF2142001F071FA339801F09AFAED
:101940004DF2152001F06AFA149801F093FA4DF265
:10195000162001F063FA339801F08CFA4DF217204B
:1019600001F05CFA159801F085FA4DF2182001F0AB
:1019700055FA3A9801F07EFA4DF2192001F04EFA2C
:101980003C9801F077FA4DF21A2001F047FA3A98A4
:1019900001F070FA4DF21B2001F040FA339801F08B
:1019A00069FA4DF21C2001F039FA3A9801F062FA16
:1019B0004DF21D2001F032FA169801F05BFA4DF25B
:1019C0001E2001F02BFA3A9801F054FA4DF21F2034
:1019D00001F024FA179801F04DFA4DF2202001F0A1
:1019E0001DFA3A9801F046FA4DF2212001F016FA5C
:1019F000189801F03FFA4DF2222001F00FFA3A98C0
:101A000001F038FA4DF2232001F008FA199801F09C
:101A100031FA4DF2242001F001FA3A9801F02AFA45
:101A20004DF2252001F0FAF91A9801F023FA4DF24F
:101A3000262001F0F3F93A9801F01CFA4DF2272024
:101A400001F0ECF91B9801F015FA4DF2282001F095
:101A5000E5F93A9801F00EFA4DF2292001F0DEF98D
:101A60001C9801F007FA4DF22A2001F0D7F93A98B4
:101A700001F000FA4DF22B2001F0D0F91D9801F091
:101A8000F9F94DF22C2001F0C9F93A9801F0F2F978
:101A90004DF22D2001F0C2F91E9801F0EBF94DF244
:101AA0002E2001F0BBF9369801F0E4F94DF22F2019
:101AB00001F0B4F91F9801F0DDF94DF2302001F08A
:101AC000ADF9369801F0D6F94DF2312001F0A6F9C2
:101AD000209801F0CFF94DF2322001F09FF93698AD
:101AE00001F0C8F94DF2332001F098F9219801F086
:101AF000C1F94FF4534001F091F93C9801F0BAF963
:101B00004DF2013001F08AF9209801F0B3F94DF25D
:101B1000023001F083F93C9801F0ACF94DF203304A
:101B200001F07CF9169801F0A5F94DF2043001F0AE
:101B300075F93C9801F09EF94DF2053001F06EF90F
:101B40000C9801F097F94DF2063001F067F93C98D6
:101B500001F090F94DF2073001F060F90D9801F0B5
:101B600089F94DF2083001F059F93C9801F082F9F9
:101B70004DF2093001F052F90E9801F07BF94DF267
:101B80000A3001F04BF93C9801F074F94DF20B303A
:101B900001F044F90F9801F06DF94DF20C3001F0AD
:101BA0003DF93C9801F066F94DF20D3001F036F93F
:101BB000109801F05FF94DF20E3001F02FF93C98CA
:101BC00001F058F94DF20F3001F028F9119801F0A9
:101BD00051F94DF2103001F021F9339801F04AF932
:101BE0004DF2113001F01AF9129801F043F94DF25B
:101BF000123001F013F9339801F03CF94DF2133033
:101C000001F00CF9139801F035F94DF2143001F0A0
:101C100005F9339801F02EF94DF2153001F0FEF878
:101C2000149801F027F94DF2163001F0F7F83398C7
:101C300001F020F94DF2173001F0F0F8159801F09D
:101C400019F94DF2183001F0E9F83A9801F012F95B
:101C50004DF2193001F0E2F83C9801F00BF94DF229
:101C60001A3001F0DBF83A9801F004F94DF21B301C
:101C700001F0D4F8339801F0FDF84DF21C3001F07A
:101C8000CDF83A9801F0F6F84DF21D3001F0C6F8A3
:101C9000169801F0EFF84DF21E3001F0BFF83A98B7
:101CA00001F0E8F84DF21F3001F0B8F8179801F094
:101CB000E1F84DF2203001F0B1F83A9801F0DAF88D
:101CC0004DF2213001F0AAF8189801F0D3F84DF246
:101CD000223001F0A3F83A9801F0CCF84DF223300D
:101CE00001F09CF8199801F0C5F84DF2243001F08C
:101CF00095F83A9801F0BEF84DF2253001F08EF8D3
:101D00001A9801F0B7F84DF2263001F087F83A98AA
:101D100001F0B0F84DF2273001F080F81B9801F087
:101D2000A9F84DF2283001F079F83A9801F0A2F8BC
:101D30004DF2293001F072F81C9801F09BF84DF239
:101D40002A3001F06BF83A9801F094F84DF22B30FC
:101D500001F064F81D9801F08DF84DF22C3001F07F
:101D60005DF83A9801F086F84DF22D3001F056F802
:101D70001E9801F07FF84DF22E3001F04FF83698A2
:101D800001F078F84DF22F3001F048F81F9801F07B
:101D900071F84DF2303001F041F8369801F06AF8F0
:101DA0004DF2313001F03AF8209801F063F84DF22D
:101DB000323001F033F8369801F05CF84DF23330F0
:101DC00001F02CF8219801F055F84FF4544001F03F
:101DD00025F83C9801F04EF84DF2014001F01EF854
:101DE000209801F047F84DF2024001F017F83C98B6
:101DF00001F040F84DF2034001F010F8169801F0A0
:101E000039F84DF2044001F009F83C9801F032F83D
:101E10004DF2054001F002F80C9801F02BF84DF25C
:101E2000064000F0FBFF3C9801F024F84DF207401B
:101E300000F0F4FF0D9801F01DF84DF2084000F09D
:101E4000EDFF3C9801F016F84DF2094000F0E6FF76
:101E50000E9801F00FF84DF20A4000F0DFFF3C98B9
:101E600001F008F84DF20B4000F0D8FF0F9801F098
:101E700001F84DF20C4000F0D1FF3C9800F0FAFF61
:101E80004DF20D4000F0CAFF109800F0F3FF4DF244
:101E90000E4000F0C3FF3C9800F0ECFF4DF20F4005
:101EA00000F0BCFF119800F0E5FF4DF2104000F08B
:101EB000B5FF339800F0DEFF4DF2114000F0AEFFA9
:101EC000129800F0D7FF4DF2124000F0A7FF3398B0
:101ED00000F0D0FF4DF2134000F0A0FF139800F087
:101EE000C9FF4DF2144000F099FF339800F0C2FF93
:101EF0004DF2154000F092FF149800F0BBFF4DF238
:101F0000164000F08BFF339800F0B4FF4DF21740FD
:101F100000F084FF159800F0ADFF4DF2184000F07E
:101F20007DFF3A9800F0A6FF4DF2194000F076FFD1
:101F30003C9800F09FFF4DF21A4000F06FFF3A9876
:101F400000F098FF4DF21B4000F068FF339800F05E
:101F500091FF4DF21C4000F061FF3A9800F08AFFBB
:101F60004DF21D4000F05AFF169800F083FF4DF22D
:101F70001E4000F053FF3A9800F07CFF4DF21F40E6
:101F800000F04CFF179800F075FF4DF2204000F074
:101F900045FF3A9800F06EFF4DF2214000F03EFF01
:101FA000189800F067FF4DF2224000F037FF3A9892
:101FB00000F060FF4DF2234000F030FF199800F070
:101FC00059FF4DF2244000F029FF3A9800F052FFEB
:101FD0004DF2254000F022FF1A9800F04BFF4DF221
:101FE000264000F01BFF3A9800F044FF4DF22740D6
:101FF00000F014FF1B9800F03DFF4DF2284000F068
:102000000DFF3A9800F036FF4DF2294000F006FF30
:102010001C9800F02FFF4DF22A4000F0FFFE3A9886
:1020200000F028FF4DF22B4000F0F8FE1D9800F064
:1020300021FF4DF22C4000F0F1FE3A9800F01AFF1B
:102040004DF22D4000F0EAFE1E9800F013FF4DF215
:102050002E4000F0E3FE369800F00CFF4DF22F40CA
:1020600000F0DCFE1F9800F005FF4DF2304000F05C
:10207000D5FE369800F0FEFE4DF2314000F0CEFE67
:10208000209800F0F7FE4DF2324000F0C7FE36987F
:1020900000F0F0FE4DF2334000F0C0FE219800F059
:1020A000E9FE4FF4554000F0B9FE3C9800F0E2FE26
:1020B0004DF2015000F0B2FE209800F0DBFE4DF230
:1020C000025000F0ABFE3C9800F0D4FE4DF20350FD
:1020D00000F0A4FE209800F0CDFE4DF2045000F078
:1020E0009DFE3C9800F0C6FE4DF2055000F096FEB5
:1020F0000C9800F0BFFE4DF2065000F08FFE3C98A9
:1021000000F0B8FE4DF2075000F088FE0D9800F088
:10211000B1FE4DF2085000F081FE3C9800F0AAFE9E
:102120004DF2095000F07AFE0E9800F0A3FE4DF239
:102130000A5000F073FE3C9800F09CFE4DF20B50EC
:1021400000F06CFE0F9800F095FE4DF20C5000F080
:1021500065FE3C9800F08EFE4DF20D5000F05EFEE4
:10216000109800F087FE4DF20E5000F057FE3C989C
:1021700000F080FE4DF20F5000F050FE119800F07C
:1021800079FE4DF2105000F049FE339800F072FED7
:102190004DF2115000F042FE129800F06BFE4DF22D
:1021A000125000F03BFE339800F064FE4DF21350E5
:1021B00000F034FE139800F05DFE4DF2145000F074
:1021C0002DFE339800F056FE4DF2155000F026FE1D
:1021D000149800F04FFE4DF2165000F01FFE339899
:1021E00000F048FE4DF2175000F018FE159800F070
:1021F00041FE4DF2185000F011FE3A9800F03AFE00
:102200004DF2195000F00AFE3C9800F033FE4DF2FA
:102210001A5000F003FE3A9800F02CFE4DF21B50CD
:1022200000F0FCFD339800F025FE4DF21C5000F04C
:10223000F5FD3A9800F01EFE4DF21D5000F0EEFD47
:10224000169800F017FE4DF21E5000F0E7FD3A9888
:1022500000F010FE4DF21F5000F0E0FD179800F066
:1022600009FE4DF2205000F0D9FD3A9800F002FE30
:102270004DF2215000F0D2FD189800F0FBFD4DF218
:10228000225000F0CBFD3A9800F0F4FD4DF22350BF
:1022900000F0C4FD199800F0EDFD4DF2245000F05F
:1022A000BDFD3A9800F0E6FD4DF2255000F0B6FD78
:1022B0001A9800F0DFFD4DF2265000F0AFFD3A987D
:1022C00000F0D8FD4DF2275000F0A8FD1B9800F05B
:1022D000D1FD4DF2285000F0A1FD3A9800F0CAFD62
:1022E0004DF2295000F09AFD1C9800F0C3FD4DF20C
:1022F0002A5000F093FD3A9800F0BCFD4DF22B50AF
:1023000000F08CFD1D9800F0B5FD4DF22C5000F052
:1023100085FD3A9800F0AEFD4DF22D5000F07EFDA7
:102320001E9800F0A7FD4DF22E5000F077FD369874
:1023300000F0A0FD4DF22F5000F070FD1F9800F04E
:1023400099FD4DF2305000F069FD369800F092FD95
:102350004DF2315000F062FD209800F08BFD4DF2FF
:10236000325000F05BFD369800F084FD4DF23350A2
:1023700000F054FD219800F07DFD4FF4564000F030
:102380004DFD3C9800F076FD4DF2016000F046FDF9
:10239000209800F06FFD4DF2026000F03FFD3C9888
:1023A00000F068FD4DF2036000F038FD169800F073
:1023B00061FD4DF2046000F031FD3C9800F05AFDE3
:1023C0004DF2056000F02AFD0C9800F053FD4DF22F
:1023D000066000F023FD3C9800F04CFD4DF20760D4
:1023E00000F01CFD0D9800F045FD4DF2086000F076
:1023F00015FD3C9800F03EFD4DF2096000F00EFD29
:102400000E9800F037FD4DF20A6000F007FD3C9891
:1024100000F030FD4DF20B6000F000FD0F9800F071
:1024200029FD4DF20C6000F0F9FC3C9800F022FD13
:102430004DF20D6000F0F2FC109800F01BFD4DF223
:102440000E6000F0EBFC3C9800F014FD4DF20F60C4
:1024500000F0E4FC119800F00DFD4DF2106000F06A
:10246000DDFC339800F006FD4DF2116000F0D6FC63
:10247000129800F0FFFC4DF2126000F0CFFC339890
:1024800000F0F8FC4DF2136000F0C8FC139800F067
:10249000F1FC4DF2146000F0C1FC339800F0EAFC4E
:1024A0004DF2156000F0BAFC149800F0E3FC4DF218
:1024B000166000F0B3FC339800F0DCFC4DF21760BE
:1024C00000F0ACFC159800F0D5FC4DF2186000F05F
:1024D000A5FC3A9800F0CEFC4DF2196000F09EFC8D
:1024E0003C9800F0C7FC4DF21A6000F097FC3A9857
:1024F00000F0C0FC4DF21B6000F090FC339800F03F
:10250000B9FC4DF21C6000F089FC3A9800F0B2FC76
:102510004DF21D6000F082FC169800F0ABFC4DF20D
:102520001E6000F07BFC3A9800F0A4FC4DF21F60A6
:1025300000F074FC179800F09DFC4DF2206000F054
:102540006DFC3A9800F096FC4DF2216000F066FCBC
:10255000189800F08FFC4DF2226000F05FFC3A9872
:1025600000F088FC4DF2236000F058FC199800F050
:1025700081FC4DF2246000F051FC3A9800F07AFCA6
:102580004DF2256000F04AFC1A9800F073FC4DF201
:10259000266000F043FC3A9800F06CFC4DF2276096
:1025A00000F03CFC1B9800F065FC4DF2286000F048
:1025B00035FC3A9800F05EFC4DF2296000F02EFCEC
:1025C0001C9800F057FC4DF22A6000F027FC3A9866
:1025D00000F050FC4DF22B6000F020FC1D9800F044
:1025E00049FC4DF22C6000F019FC3A9800F042FCD6
:1025F0004DF22D6000F012FC1E9800F03BFC4DF2F5
:102600002E6000F00BFC369800F034FC4DF22F6089
:1026100000F004FC1F9800F02DFC4DF2306000F03B
:10262000FDFB369800F026FC4DF2316000F0F6FB21
:10263000209800F01FFC4DF2326000F0EFFB36985E
:1026400000F018FC4DF2336000F0E8FB219800F038
:1026500011FC229800F0E2FB3D9800F00BFC23985F
:1026600000F0DCFB249800F005FC259800F0D6FB78
:10267000269800F0FFFB279800F0D0FB289800F088
:10268000F9FB299800F0CAFB3C9800F0F3FB2A986C
:1026900000F0C4FB3C9800F0EDFB2B9800F0BEFB73
:1026A00050203B9000F0E6FB2C9800F0B7FBCC20CC
:1026B00000F0E0FB2D9800F0B1FB3C9800F0DAFB55
:1026C0002E9800F0ABFB052000F0D4FB2F9800F013
:1026D000A5FB7020319000F0CDFB309800F09EFB00
:1026E000319800F0C7FB329800F098FB339800F067
:1026F000C1FB349800F092FB369800F0BBFB359894
:1027000000F08CFB369800F0B5FB4BF6030000F0B0
:1027100085FB369800F0AEFB379800F07FFB3A98C7
:1027200000F0A8FB389800F079FB3C9800F0A2FB81
:10273000399800F073FB3C9800F09CFB4FF4494043
:1027400000F06CFBD02000F095FB4CF6011000F07F
:1027500065FB3A9800F08EFB4CF6021000F05EFB31
:102760003B9800F087FB4CF6031000F057FB3B98BA
:1027700000F080FB4CF6041000F050FB3B9800F09A
:1027800079FB4FF4585000F049FB3C9800F072FB85
:102790004FF4545000F042FB3C9800F06BFB4FF4B8
:1027A000685000F03BFB3D9800F064FB4FF488500C
:1027B00000F034FB3E9807F025FC4FF4245000F065
:1027C0002DFB3F9807F01EFC4FF4305000F026FB25
:1027D00040B080BD82B08DF8070000919DF90700E0
:1027E000B0F1FF3F0CDCFFE7009800019DF80710F7
:1027F00001F00F014EF61452CEF20002885409E0A7
:10280000009800019DF907104EF20042CEF200023E
:102810008854FFE702B0704770470000704700001F
:1028200080B582B0009000980138B0F1807F03D36A
:10283000FFE70120019019E0009801384EF21401E1
:10284000CEF2000108604FF0FF300F21FFF7C2FF0A
:102850004EF21801CEF20001002008604EF2100284
:10286000CEF20002072111600190FFE7019802B04B
:1028700080BD000080B507F0EDFB80BD80B582B063
:102880004EF68851CEF20001086840F470000860EE
:1028900043F60001C4F20201086840F0010008603C
:1028A000FFE743F60000C4F202000068800700283A
:1028B00001D4FFE7F5E7FFE743F60801C4F20201A0
:1028C000086840F08000086000200190FFE7019850
:1028D0004F2805D8FFE7FFE7019801300190F6E7A0
:1028E00043F60801C4F20201086840F09000086055
:1028F00000200190FFE701984F2805D8FFE7FFE788
:10290000019801300190F6E7FFE743F60801C4F2B1
:102910000201086820F00300086043F60002C4F2D8
:10292000020210684FF6FF73CFF6F663184010608E
:10293000106820F48020106000200860FFE743F654
:102940000800C4F202000068012008B9FFE7F6E7BA
:1029500043F60401C4F2020143F21000C2F2004047
:10296000086043F60C01C4F20201002008603FF049
:102970001BFF02B080BD000080B582B041F2004074
:10298000C4F20000012141F0E1FA01280CD1FFE777
:1029900041F20040C4F200000121019141F0CCFA63
:1029A000019838F071FFFFE702B080BD80B5B2B08A
:1029B000DDF8D4C0DDF8D0C0319030912F922E9345
:1029C00021A841F053FC17A841F00AFC41F21A106B
:1029D0003BF0A4FE4FF440603BF0A0FE40F6014007
:1029E0003BF09CFE40F602403BF098FE40F6034070
:1029F0003BF094FE40F605403BF090FE40F606406A
:102A00003BF08CFE0020C4F2020008900E210691DB
:102A100041F65812099216F037FD40F20040C4F218
:102A200002000A9009210791012216F02DFD069956
:102A30000A984FF4706216F027FD069940F60000E0
:102A4000C4F202000C90C0220D9216F01DFD0699F2
:102A500040F60040C4F202000E9008220F9216F0D9
:102A600013FD069941F20040C4F2020010904FF4A9
:102A70008062119216F008FD069941F60000C4F23A
:102A8000020013904FF40C6216F0FEFC07991398A5
:102A90004FF4A05216F0F8FC0898099B02211291FD
:102AA0000022149216F094FD0898099B14990322B1
:102AB000159216F0DBFD0A981299149A40F60173EC
:102AC0000B9316F085FD0A980B9B1499159A16F036
:102AD000CDFD0C980D9B1299149A16F079FD0C9867
:102AE0000D9B1499159A16F0C1FD0E980F9B129923
:102AF000149A16F06DFD0E980F9B1499159A16F006
:102B0000B5FD1098119B1299149A16F061FD10985A
:102B1000119B1499159A16F0A9FD12991398149AFD
:102B20004FF4E653169316F053FD13981499159A23
:102B3000169B16F09BFD0A2031909621309128219A
:102B40002F912E908C2034900F20359048F2A46065
:102B5000C2F20000C068022818D0FFE748F2A46063
:102B6000C2F20000C068042810D0FFE748F2A46059
:102B7000C2F20000C068082808D0FFE748F2A4604D
:102B8000C2F20000C06810283BD1FFE748F2A462FF
:102B9000C2F200021068516892683BF0FBFD10B968
:102BA000FFE7FFE7FEE748F2A460C2F20000C0685A
:102BB0000238014605910E281DD80599DFE801F07D
:102BC000081B0C1B1B1B111B1B1B1B1B1B1B1600A1
:102BD00000203BF023FE13E04FF480303BF01EFE5C
:102BE0000EE04FF400303BF019FE09E04FF44030A6
:102BF0003BF014FE04E04FF480303BF00FFEFFE7A3
:102C00000CE0C020022103223BF0C4FD10B9FFE715
:102C1000FFE7FEE700203BF001FEFFE71C200490E9
:102C20003BF0EEFB04983BF0FFFB10B9FFE7FFE73A
:102C3000FEE7002003902A902B902C904FF08050BC
:102C40002D9031980138ADF886002E980138ADF8F6
:102C500084003198309908440138ADF88A002E98E4
:102C6000349908440138ADF8880031983099084407
:102C700000F2DF1024902E983499084400F21F309F
:102C800023903198309908442F99084400F2DF10BE
:102C900026902E98349908443599084400F21F3044
:102CA0002590FF20019027902890299021A841F09D
:102CB000A5F901990398319A309B1A44ADF85E202A
:102CC000319A309B1A4402F2DF12ADF85C202E9A42
:102CD000349B1A44ADF862202E9A349B1A4402F2B7
:102CE0001F32ADF86020022219928DF868108DF81D
:102CF0006C108DF86B108DF86A108DF869004FF428
:102D000080601C9005201D9040F2E000C2F200009F
:102D100000681E9040F2C330ADF87E004FF4707032
:102D2000ADF87C004FF44870ADF8800046F6000026
:102D3000C4F20100029017A941F0D4F9012041F03A
:102D400037F9029841F0C2F946F68000C4F201005A
:102D500041F0B0F9039841F06DFA41F045F932B015
:102D600080BD0000FFE7FEE780B586B08DF8170054
:102D700041F20000C4F2020004210022049216F085
:102D8000FDFB04988DF81600FFE79DF81600072854
:102D900042DCFFE741F20000C4F2020004210022FD
:102DA00016F0ECFB9DF817000006002809D5FFE798
:102DB00041F20000C4F202004021012216F0DEFBC5
:102DC00008E041F20000C4F202004021002216F0A7
:102DD000D5FBFFE741F20000C4F20200019004219C
:102DE0000291002216F0CAFB0120039039F036FF51
:102DF00001980299039A16F0C1FB039839F02EFF4F
:102E00009DF8170040008DF81700FFE79DF81600A9
:102E100001308DF81600B8E706B080BD80B586B0E9
:102E2000ADF8160041F20000C4F202000390102138
:102E300004910022019216F0A1FB0520029039F0C6
:102E40000DFF2020FFF790FF9DF81700FFF78CFF84
:102E50000198FFF789FF9DF81600FFF785FF02989C
:102E600039F0FCFE03980499012216F087FB06B0A6
:102E700080BD000080B584B08DF80F0041F20000E5
:102E8000C4F20200019010210291002216F076FB9C
:102E90000520009039F0E2FE4020FFF765FF9DF825
:102EA0000F00FFF761FF009839F0D8FE01980299F2
:102EB000012216F063FB04B080BD000080B582B033
:102EC000019000200090FFE701980068007800F072
:102ED00013F868B1FFE7009800EB8001019B1868C8
:102EE000421C1A60007800EB410030380090EBE79C
:102EF000009802B080BD000082B08DF807009DF8F8
:102F0000071000203029009008DBFFE79DF807102C
:102F100000203A29B8BF01200090FFE7009800F098
:102F2000010002B07047000080B582B040F2082076
:102F3000C2F20000402102F0FBF947F23160C0F616
:102F400000001E210022019238F026FD40F21421DB
:102F5000C2F20001086004F0D5FA019840F29831FD
:102F6000C2F20001087002B080BD000088B0079076
:102F7000069105920698B0F900000599B1F9001084
:102F8000884205DDFFE70698B0F90000039004E0F1
:102F90000598B0F900000390FFE7039807990880AF
:102FA0000698B0F902000599B1F90210884205DDD2
:102FB000FFE70698B0F90200029004E00598B0F926
:102FC00002000290FFE70298079948800698B0F93E
:102FD00004000599B1F90410884205DAFFE7069864
:102FE000B0F90400019004E00598B0F904000190E4
:102FF000FFE70198079988800698B0F906000599BF
:10300000B1F90610884205DAFFE70698B0F9060024
:10301000009004E00598B0F906000090FFE70098E2
:103020000799C88001208DF813000799B1F90000B5
:10303000B1F90410884208DCFFE70799B1F90200F2
:10304000B1F90610884204DDFFE700208DF8130077
:10305000FFE79DF8130000F0010008B07047000082
:1030600080B586B004900391ADF80A2000208DF859
:1030700009000498B0F900000399B1F900108842E2
:103080001FDBFFE70498B0F902000399B1F90210C1
:10309000884216DBFFE70498B0F904000399B1F900
:1030A000041088420DDCFFE70498B0F9060003998C
:1030B000B1F90610884204DCFFE701208DF8090011
:1030C000FFE79DF80900C00720B9FFE700208DF851
:1030D00017005BE0BDF90A0020B9FFE701208DF879
:1030E000170053E004980088ADF804000498408865
:1030F000ADF806000398BDF90A2001A900F00CF90B
:1031000020B9FFE700208DF817003FE00498808881
:10311000ADF8040004984088ADF806000398BDF9A6
:103120000A2001A900F0F8F820B9FFE700208DF887
:1031300017002BE004980088ADF804000498C088BC
:10314000ADF806000398BDF90A2001A900F0E4F8E3
:1031500020B9FFE700208DF8170017E00498808859
:10316000ADF804000498C088ADF806000398BDF9D6
:103170000A2001A900F0D0F820B9FFE700208DF85F
:10318000170003E001208DF81700FFE79DF81700F6
:1031900006B080BD83B0019000910198B0F90000A5
:1031A0000099B1F9041088421FDCFFE70198B0F9DB
:1031B00004000099B1F90010884216DBFFE701987E
:1031C000B0F902000099B1F9061088420DDCFFE762
:1031D0000198B0F906000099B1F90210884204DBA9
:1031E000FFE701208DF80B0003E000208DF80B00B5
:1031F000FFE79DF80B0003B07047000080B586B074
:1032000004900391ADF80A200498B0F904000399E2
:10321000B1F9001088421BDBFFE70498B0F9060003
:103220000399B1F90210884212DBFFE70498B0F964
:1032300000000399B1F90410884209DCFFE7049803
:10324000B0F902000399B1F90610884204DDFFE7E6
:1032500001208DF817005BE0BDF90A0020B9FFE7F7
:1032600000208DF8170053E004980088ADF80400A2
:1032700004984088ADF806000398BDF90A2001A91A
:1032800000F04AF820B1FFE700208DF817003FE07A
:1032900004988088ADF8040004984088ADF80600D2
:1032A0000398BDF90A2001A900F036F820B1FFE724
:1032B00000208DF817002BE004980088ADF804007A
:1032C0000498C088ADF806000398BDF90A2001A94A
:1032D00000F022F820B1FFE700208DF8170017E07A
:1032E00004988088ADF804000498C088ADF8060002
:1032F0000398BDF90A2001A900F00EF820B1FFE7FC
:1033000000208DF8170003E001208DF81700FFE77B
:103310009DF8170006B080BD80B58AB0089007916F
:10332000ADF81A2000208DF819000798B0F90000B8
:103330000899B1F9001088421FDBFFE70798B0F940
:1033400000000899B1F90410884216DCFFE70798DD
:10335000B0F902000899B1F9021088420DDBFFE7CD
:103360000798B0F902000899B1F90610884204DC08
:10337000FFE701208DF81900FFE79DF81900C0074D
:1033800020B9FFE700208DF82700E1E0BDF91A0021
:10339000002804DCFFE701208DF82700D8E008981A
:1033A0001BF052FD00EBD0704008ADF816000898F5
:1033B0001BF05AFC00EBD0704008ADF81400BDF9CA
:1033C0001600BDF91410884204DAFFE7BDF91600B3
:1033D000019003E0BDF914000190FFE70198ADF8FA
:1033E0001200BDF91A00BDF91210884205DDFFE791
:1033F000BDF81200ADF81A00FFE708980088ADF894
:10340000080008980088BDF81A100844ADF80C00B0
:1034100008984088ADF80A0008984088BDF81A104E
:103420000844ADF80E00079902A80022FFF774FFC8
:10343000A8B1FFE7BDF81A10BDF80C000844ADF8BC
:103440000C00BDF81A10BDF80E000844ADF80E00CF
:10345000079902A833F02CFA8DF8270078E0089835
:10346000C088BDF81A10401AADF80A000898C08844
:10347000ADF80E00079902A80022FFF74DFFA8B192
:10348000FFE7BDF81A10BDF80C000844ADF80C00B9
:10349000BDF81A10BDF80A00401AADF80A000799E5
:1034A00002A833F005FA8DF8270051E008988088CB
:1034B000BDF81A10401AADF8080008988088ADF8D9
:1034C0000C00079902A80022FFF726FFA8B1FFE72A
:1034D000BDF81A10BDF80800401AADF80800BDF894
:1034E0001A10BDF80A00401AADF80A00079902A8A0
:1034F00033F0DEF98DF827002AE008984088ADF80F
:103500000A0008984088BDF81A100844ADF80E006B
:10351000079902A80022FFF7FFFEA8B1FFE7BDF858
:103520001A10BDF80800401AADF80800BDF81A10CE
:10353000BDF80E000844ADF80E00079902A833F05C
:10354000B7F98DF8270003E001208DF82700FFE789
:103550009DF827000AB080BD87B0069005910492BF
:103560000598B0F900000499B1F90010884205DA15
:10357000FFE70598B0F90000039004E00498B0F963
:1035800000000390FFE70398069908800598B0F9BA
:1035900002000499B1F90210884205DAFFE70598A4
:1035A000B0F90200029004E00498B0F90200029021
:1035B000FFE70298069948800598B0F9040004993D
:1035C000B1F90410884205DDFFE70598B0F9040061
:1035D000019004E00498B0F904000190FFE701981D
:1035E000069988800598B0F906000499B1F906108B
:1035F000884205DDFFE70598B0F90600009004E079
:103600000498B0F906000090FFE700980699C8807A
:1036100007B07047B0B596B014468C4686461C98E5
:103620001B991A9A1494BDF85040ADF85440CDF847
:103630004CE0CDF848C011938DF843208DF842102E
:103640008DF841009DF84200012801DCFFE7AAE067
:103650009DF8430008B9FFE7A5E002F0AFFA0F902C
:103660000F9820F09BF80E900E9810300D900E9849
:1036700080680C900F980068C06A28B1FFE70F9827
:103680000068C16A8847FFE71399129A0AA8FFF7F2
:103690006DFC08B9FFE786E00D9801884942408833
:1036A000404209B202B20AA81BF020FC119820B3D4
:1036B000FFE70F9800680069C008C007E8B9FFE796
:1036C0001198D0B1FFE70AA81BF05AFB099000201F
:1036D0000890FFE70898099988420DDAFFE71199E9
:1036E000089A8B5C0020802BC8BFFF208854FFE71E
:1036F000089801300890EDE7FFE70F980068C0696F
:10370000C0B1FFE70D980C999DF84220DDF844E028
:103710009DF84340BDF85430ADF81C30079BEC4693
:10372000CCF80840CCF804E0CCF800200AAA12F04B
:103730008DFF38E09DF84100C0B9FFE70D980C9966
:103740009DF84220DDF844E09DF84340BDF8543038
:10375000ADF81830069BEC46CCF80840CCF804E0F5
:10376000CCF800200AAA12F075FC1BE00D980C9909
:103770009DF84220DDF844E09DF843409DF841501B
:10378000BDF85430ADF81430059BEC46CCF80C5025
:10379000CCF80840CCF804E0CCF800200AAA12F0DB
:1037A00007FBFFE7FFE716B0B0BD000070B594B0AF
:1037B00094468E4604461A981999189A1394CDF88F
:1037C00048E0CDF844C010938DF83F208DF83E10AE
:1037D0008DF83D009DF83E00012801DCFFE7B8E0D0
:1037E0009DF83F0008B9FFE7B3E01399129A0DA8BE
:1037F000FFF7BCFB8DF833009DF83300C00708B914
:10380000FFE7A6E002F0DAF90B900B981FF0C6FF75
:103810000A900A98103009900A98806808900B98CE
:103820000068C06A28B1FFE70B980068C16A884742
:10383000FFE709980188BDF83400401AADF834005C
:1038400009984188BDF83600401AADF8360009984D
:103850000188BDF83800401AADF838000998418851
:10386000BDF83A00401AADF83A00109808B3FFE7E7
:103870000B9800680069C008C007D0B9FFE70DA821
:103880001BF07EFA079000200690FFE70698079944
:1038900088420DDAFFE71099069A8B5C0020802B96
:1038A000C8BFFF208854FFE7069801300690EDE777
:1038B000FFE70B980068C069B0B1FFE70998089965
:1038C000129B119A9DF83EE0109C9DF83F50EC46EB
:1038D000CCF80C50CCF80840CCF804E0CCF8002030
:1038E0000DAA39F033FE34E09DF83D00B0B9FFE792
:1038F00009980899129B119A9DF83EE0109C9DF83A
:103900003F50EC46CCF80C50CCF80840CCF804E022
:10391000CCF800200DAA39F03FFB19E0099808996E
:10392000129B119A9DF83EE0109C9DF83F509DF827
:103930003D60EC46CCF81060CCF80C50CCF8084058
:10394000CCF804E0CCF800200DAA39F0E5F9FFE747
:10395000FFE714B070BD000080B586B0059037F069
:1039600079FF0490002003900598C06840F2104150
:10397000C2F2000102910860059838F0D5F902986A
:103980000068006932F03CFE02980068406948B166
:10399000FFE740F21040C2F200000068406932F0D8
:1039A0002FFEFFE740F21040C2F2000001900068D5
:1039B000C06932F025FE01980068006A32F020FEEE
:1039C00001980068006958B9FFE740F21040C2F260
:1039D000000001680020A1F85401FFE7FFE754E070
:1039E00033F0AEFB33F0B6FA40F21040C2F2000002
:1039F0000068B0F85401002840D0FFE740F21040C2
:103A0000C2F200000068006800694008C00718B1F1
:103A1000FFE708F0CDFDFFE740F21040C2F20000E2
:103A20000090006834304FF480712AF017FB009842
:103A3000006800F59A7020212AF010FB00980168B8
:103A40000020A1F85401049837F0E8FE01460098E0
:103A5000039100680068006A78B1FFE740F2104007
:103A6000C2F2000000680068036A039948F2286205
:103A7000C2F2000212689847FFE7FFE729F094FDC1
:103A800000F064F800F004F8FFE706B080BD000025
:103A900080B582B000208DF80700FFE79DF8070091
:103AA00003282DDCFFE79DF80700C0EBC00140F2C2
:103AB0001820C2F2000050F8210068B1FFE79DF81D
:103AC0000700C0EBC00140F21820C2F2000050F81D
:103AD000210029F0C5FEFFE79DF80700C0EBC001FB
:103AE00040F21820C2F2000000EB81001C212AF0F5
:103AF000B5FAFFE79DF8070001308DF80700CDE724
:103B000002B080BD82B0019040F22050C2F20000AD
:103B100000680090FFE70098B0B1FFE700984068A8
:103B20000199884206D0FFE7009800680199884211
:103B300006D1FFE70099087E40F001000876FFE714
:103B4000009840690090E6E702B0704770470000B7
:103B500080B540F21430C2F20000042101F0E8FB0D
:103B600080BD000080B540F22030C2F200001C2170
:103B700001F0DEFB80BD000080B5AAB084462D9820
:103B80002C98CDF8A4C0ADF8A210ADF8A020ADF8E7
:103B90009E30ADF89C00BDF99E00B0B9FFE7BDF8BE
:103BA0009C00B0F5807F10D1FFE7299900200880A4
:103BB00029994880BDF8A200013829998880BDF86C
:103BC000A00001382999C88071E22D98B0F9000051
:103BD0004042BDF89C1041434FF0FF3000EB1121F3
:103BE000299A11802D99B1F902104942BDF89C2003
:103BF000514300EB112029994880BDF9A2002D996D
:103C0000B1F90010401ABDF89C104143022000EBAE
:103C10001121299A9180BDF9A0102D9AB2F90220A4
:103C2000891ABDF89C20514300EB11202999C880C6
:103C3000BDF99E00C8B9FFE72D9802882999088828
:103C4000104408802D98428829994888104448805B
:103C50002D98028829998888104488802D98428858
:103C60002999C8881044C88021E2BDF99E0046F217
:103C70006761C6F26661189150FB01F1881000EB94
:103C8000D1702690269801302590BDF99E00269986
:103C900001EB8101A0EB41002490BDF9980038F0C0
:103CA00059FA2390BDF9940038F054FA22902698DE
:103CB0005A3000B238F04EFA219025985A3000B2AE
:103CC00038F048FA189920902398DDF890C0CCF18C
:103CD0000A02229B03FB0CF300FB023050FB01F2B3
:103CE000901000EBD2701F902198DDF890C0CCF1BD
:103CF0000A02209B03FB0CF300FB023050FB01F196
:103D0000881000EBD1701E901F9840111F901E98D4
:103D100040111E9029980088ADF8660029984088C7
:103D2000ADF864001E98BDF9661000FB01F21F9803
:103D3000BDF9641000FB11212D98008800EB912043
:103D4000ADF874001F98BDF966101E9ABDF9643075
:103D50005A4300FB01212D98408800EB9120ADF8DB
:103D6000760029988088ADF8660029984088ADF8DB
:103D700064001E98BDF9661000FB01F21F98BDF9A2
:103D8000641000FB11212D98008800EB9120ADF804
:103D900070001F98BDF966101E9ABDF964305A4331
:103DA00000FB01212D98408800EB9120ADF87200B6
:103DB00029980088ADF866002998C088ADF864009D
:103DC0001E98BDF9661000FB01F21F98BDF9641042
:103DD00000FB11212D98008800EB9120ADF86C00BC
:103DE0001F98BDF966101E9ABDF964305A4300FB56
:103DF00001212D98408800EB9120ADF86E002998A4
:103E00008088ADF866002998C088ADF864001E98D7
:103E1000BDF9661000FB01F21F98BDF9641000FBAC
:103E200011212D98008800EB9120ADF868001F98B3
:103E3000BDF966101E9ABDF964305A4300FB01219A
:103E40002D98408800EB9120ADF86A00BDF96C0018
:103E5000BDF97410884204DAFFE7BDF96C001790D1
:103E600003E0BDF974001790FFE717981690BDF9AD
:103E70006800BDF97010884204DAFFE7BDF96800F8
:103E8000159003E0BDF970001590FFE7169815999D
:103E9000884212DAFFE7BDF96C00BDF97410884260
:103EA00004DAFFE7BDF96C00149003E0BDF974007B
:103EB0001490FFE71498139011E0BDF96800BDF964
:103EC0007010884204DAFFE7BDF96800129003E041
:103ED000BDF970001290FFE712981390FFE7139856
:103EE00029990880BDF96C00BDF97410884204DD81
:103EF000FFE7BDF96C00119003E0BDF9740011906B
:103F0000FFE711981090BDF96800BDF97010884264
:103F100004DDFFE7BDF968000F9003E0BDF9700014
:103F20000F90FFE710980F99884212DDFFE7BDF967
:103F30006C00BDF97410884204DDFFE7BDF96C0028
:103F40000E9003E0BDF974000E90FFE70E980D90FF
:103F500011E0BDF96800BDF97010884204DDFFE78B
:103F6000BDF968000C9003E0BDF970000C90FFE70C
:103F70000C980D90FFE70D9829998880BDF96E0087
:103F8000BDF97610884204DAFFE7BDF96E000B90A8
:103F900003E0BDF976000B90FFE70B980A90BDF99E
:103FA0006A00BDF97210884204DAFFE7BDF96A00C1
:103FB000099003E0BDF972000990FFE70A9809999A
:103FC000884212DAFFE7BDF96E00BDF9761088422B
:103FD00004DAFFE7BDF96E00089003E0BDF9760052
:103FE0000890FFE70898079011E0BDF96A00BDF955
:103FF0007210884204DAFFE7BDF96A00069003E018
:10400000BDF972000690FFE706980790FFE7079852
:1040100029994880BDF96E00BDF97610884204DD0B
:10402000FFE7BDF96E00059003E0BDF9760005904D
:10403000FFE705980490BDF96A00BDF97210884247
:1040400004DDFFE7BDF96A00039003E0BDF97200EB
:104050000390FFE704980399884212DDFFE7BDF95A
:104060006E00BDF97610884204DDFFE7BDF96E00F1
:10407000029003E0BDF976000290FFE702980190FC
:1040800011E0BDF96A00BDF97210884204DDFFE756
:10409000BDF96A00009003E0BDF972000090FFE7EF
:1040A00000980190FFE701982999C880FFE72AB09E
:1040B00080BD000080B592B01090ADF83E10ADF814
:1040C0003C20109800680E90BDF93E001099B1F99F
:1040D0000810401A0D90BDF93C001099B1F90A1072
:1040E000401A0C901098C089B0F5807F1BD1FFE773
:1040F000109A506AD16A126B0D9B53430C9A01FBC4
:10410000123100EBA1000B90109B0D9A986AD96AAE
:104110001B6BDDF830C003FB0CF301FB023100EB3D
:10412000A1000A9043E01098B0F90C00B8B9FFE77D
:104130000D981099896B484340110D900C98109977
:10414000896B484340110C900D981099496A0844B6
:104150000B900C981099896A08440A9026E00D98F3
:104160001099896B484340110D900C981099896BF8
:10417000484340110C90109A506AD16A126B0D9B03
:1041800053430C9A01FB123100EBA1200B90109BC2
:104190000D9A986AD96A1B6BDDF830C003FB0CF3EB
:1041A00001FB023100EBA1200A90FFE7FFE70B982B
:1041B000001209900A980012089009981099B1F914
:1041C0000410884204DBFFE700208DF84700D1E0AF
:1041D0000998B0F1FF3F04DCFFE700208DF84700AD
:1041E000C8E0FFE708981099B1F90610884204DB8F
:1041F000FFE700208DF84700BCE00898B0F1FF3FD2
:1042000004DCFFE700208DF84700B3E0FFE71098DB
:1042100090F834008008C007002845D0FFE71098C8
:1042200090F834004008C007C8B9FFE702208DF8B5
:104230001F001098B0F90400089948439DF81F101A
:10424000099A4A4300FB01200690109814300E99F9
:10425000069A11449DF81F2029F00EFE23E003204A
:104260008DF81F001098B0F90400089948439DF894
:104270001F10099A4A4300FB012006901098143041
:104280000E99069A11449DF81F20013A29F0F4FD79
:104290000E9906989DF81F201044084410F8010C50
:1042A00010998875FFE722E0002006908DF81F0026
:1042B000109B019303F11800BDF92410BDF92020D3
:1042C0001B8AADF81030049B24F0B2FF0199ADF8C1
:1042D0001400BDF81400888210981830BDF924101D
:1042E000BDF9202024F09EFE10998875FFE71098F4
:1042F00090F83400C00790B1FFE74FF47F401DF005
:10430000BBFDADF80C001098808ABDF80C108842F7
:1043100004D1FFE700208DF847002BE0FFE710985D
:10432000C07CC00720B9FFE701208DF8470021E0DD
:104330000B98109988870A981099C887099810993E
:10434000A1F8400008981099A1F842000698109929
:1043500048649DF81F00109981F84800109800F0FB
:104360000DF88DF80B009DF80B0000F001008DF8A2
:104370004700FFE79DF8470012B080BD80B5A2B0AE
:104380002090209800681F90209890F83C001E9084
:10439000209890F83E001D901E986F2814DCFFE7CF
:1043A0004FF0FF301C902098B0F940001C99084451
:1043B000B0F1FF3F03DCFFE700201C90FFE71E98F1
:1043C00080308DF86F0020E01E98912816DBFFE703
:1043D00001201C902098B0F90410B0F940001C9AFC
:1043E0001044884203DBFFE700201C90FFE71E9982
:1043F00040F27F10401A8DF86F0005E000201C90FD
:10440000FF208DF86F00FFE7FFE71D986F2814DC91
:10441000FFE74FF0FF301A902098B0F942001A9948
:104420000844B0F1FF3F03DCFFE700201A90FFE7EC
:104430001D9880308DF8670020E01D98912816DBCC
:10444000FFE701201A902098B0F90610B0F9420059
:104450001A9A1044884203DBFFE700201A90FFE716
:104460001D9940F27F10401A8DF8670005E000208A
:104470001A90FF208DF86700FFE7FFE72098808AF9
:10448000ADF864002098807D8DF8570000208DF8ED
:1044900056008DF855008DF85400209890F834009F
:1044A0008008C007002872D0FFE71F9820994B6C46
:1044B00091F848101C9A01FB0231014418A802220D
:1044C000029229F0D9FC029A1F98209BD3F844C08D
:1044D000B3F9041093F8483059431A9B01FB03C108
:1044E000014417A829F0C8FC029A1F982099D1F816
:1044F00044E0B1F9043091F848104B43DDF868C04E
:1045000003FB0CEC1C9B01FB03C1014416A829F022
:10451000B3FC209890F834004008C007B0B3FFE720
:104520001F992098436C90F848201C9802FB00309B
:104530001044084410F8010C8DF856001F99209A79
:10454000D2F844C0B2F9040092F8482050431A9BB4
:1045500000FB03C01044084410F8010C8DF855000E
:104560001F99209AD2F844C0B2F9040092F848206A
:1045700050431A9B00FB03C31C9802FB00301044FD
:10458000084410F8010C8DF85400FFE77CE0209BF4
:1045900003F11800B3F840101C9A1144B3F94220FB
:1045A0001B8AADF84C30139B09B224F041FEADF8E4
:1045B0005000BDF85000ADF86000209B03F11800DA
:1045C000B3F94010B3F84220DDF868C062441B8A9A
:1045D000ADF84430119B12B224F02AFEADF8480029
:1045E000BDF84800ADF85C00209B03F11800B3F85B
:1045F00040101C9A1144B3F84220DDF868C06244B0
:104600001B8AADF83C300F9B09B212B224F010FEA9
:10461000ADF84000BDF84000ADF85800209890F883
:1046200034004008C00770B3FFE7209A02F1180079
:10463000B2F840101C9B1944B2F9422009B224F090
:10464000F1FC8DF85600209A02F11800B2F94010E2
:10465000B2F842201A9B1A4412B224F0E3FC8DF8FF
:104660005500209A02F11800B2F840101C9B194422
:10467000B2F842201A9B1A4409B212B224F0D2FCBA
:104680008DF85400FFE7FFE79DF86F008DF83B00C1
:104690009DF86F008DF83A00209890F8340040089B
:1046A000C007002872D0FFE79DF857009DF86F10F3
:1046B00000FB01F29DF8560081F0FF0110FB012084
:1046C000000A8DF839009DF855009DF86F1000FB29
:1046D00001F29DF8540081F0FF0110FB0120000A57
:1046E0008DF838009DF839009DF8671000FB01F245
:1046F0009DF8380081F0FF0110FB0120000A20998D
:1047000088759DF83900022809DCFFE79DF838001C
:10471000022804DCFFE700208DF88700C3E09DF845
:104720003900022804DCFFE700208DF86700FFE76E
:104730009DF83800022804DCFFE7FF208DF86700B1
:10474000FFE79DF85700022804DCFFE700208DF802
:104750003B00FFE79DF85600022804DCFFE7FF203E
:104760008DF83B00FFE79DF85500022804DCFFE7C9
:1047700000208DF83A00FFE79DF85400022804DC81
:10478000FFE7FF208DF83A00FFE70BE09DF86F0090
:104790008DF83B009DF86F008DF83A002099FF20BE
:1047A0008875FFE79DF83B0028B9FFE7BDF860007A
:1047B000ADF834001FE09DF83B00FF2805D1FFE76E
:1047C000BDF86400ADF8340014E09DF83B20BDF85E
:1047D0006400ADF82C000B98BDF86010ADF82810FF
:1047E0000A991DF085FFADF83000BDF83000ADF836
:1047F0003400FFE7FFE79DF83A0028B9FFE7BDF86E
:104800005800ADF824001FE09DF83A00FF2805D1BC
:10481000FFE7BDF85C00ADF8240014E09DF83A20F5
:10482000BDF85C00ADF81C000798BDF85810ADF855
:10483000181006991DF05CFFADF82000BDF82000AF
:10484000ADF82400FFE7FFE79DF8670028B9FFE710
:104850002099BDF82400888221E09DF86700FF2898
:1048600005D1FFE72099BDF83400888216E0209832
:1048700001909DF86720BDF83400ADF81000049851
:10488000BDF82410ADF80C1003991DF031FF01990B
:10489000ADF81400BDF814008882FFE7FFE701209F
:1048A0008DF88700FFE79DF8870022B080BD0000EB
:1048B00080B58AB009900999B1F9080000024862F0
:1048C0000999B1F90A00000288620998B0F90C0050
:1048D00046F26761C6F26661019150FB01F18810F2
:1048E00000EBD17008900898013007900998B0F952
:1048F0000C00089901EB8101A0EB4100069008989B
:10490000404200B237F026FC05900798404200B2C2
:1049100037F020FC04900898C0F15A0000B237F03C
:1049200019FC03900798C0F15A0000B237F012FC4E
:10493000019902900598DDF818C0CCF10A02049B99
:1049400003FB0CF300FB023050FB01F2901000EB74
:10495000D270099AD0620398DDF818C0CCF10A022F
:10496000029B03FB0CF300FB023050FB01F18810AB
:1049700000EBD170099908630999C86A4011C862AF
:104980000999086B401108630998807C24F0D6FDD2
:104990000246099991F8340000F0FE00104481F8B5
:1049A00034000998807C24F0A5FD0246099991F80D
:1049B000340000F0FD0040EA420081F8340009981C
:1049C000807C04280AD0FFE70998807C052805D060
:1049D000FFE70998807C062808D1FFE7099991F83C
:1049E000340040F0040081F8340007E0099991F8A0
:1049F000340000F0FB0081F83400FFE709990868F3
:104A000008620999087E00F01F00087609998A7CDF
:104A1000087E02F01F0200F0E000104408760999B9
:104A200031F8190F31F8153C8A786FF3DF234EF215
:104A3000030C00EA0C0040EA83008A7008800999A0
:104A400031F8190F31F8132C6FF35F3040EA423020
:104A5000D2088A7008800999CA89500800F50010A8
:104A6000B0FBF2F088630999FF2088750999088ADC
:104A700088820AB080BD000080B58AB00791BDF879
:104A80001C10ADF82010069005920020049040F212
:104A90002C30C2F20000049036F0DCFE0390049843
:104AA0000699059BBDF82020ADF80420019A25F059
:104AB00051FC8DF80B009DF80B0068B9FFE7FFE78C
:104AC000FFE704982C2129F0C9FA04994FF000401F
:104AD00088620020099017E00499002088620498F9
:104AE000C06930B9FFE7039836F098FE0499C861B1
:104AF000FFE70498C06920B9FFE704990120C86165
:104B0000FFE704980990FFE709980AB080BD00000C
:104B100080B582B040F25830C2F20000142100F09B
:104B200007FC25F09FFB0190FFE7019820B9FFE704
:104B3000FFE7FFE7FFE7FEE7FFE7019818B9FFE7A8
:104B4000FFE7FFE71CE0019849F2D951C0F60201E6
:104B500025F0F8FC019849F69D51C0F6020125F0B8
:104B6000F9FC01984AF2D101C0F6020125F0FAFCE5
:104B7000019849F27D51C0F6020125F0DBFCFFE708
:104B800002B080BD80B582B00190009100981021E4
:104B900029F064FA019800680078012809D1FFE73C
:104BA0000198008A009908800198408A00994880FD
:104BB00016E0019800680078022805D1FFE7019807
:104BC000C068009948600AE00198006800780428ED
:104BD00004D1FFE700990A204860FFE7FFE7FFE7FD
:104BE00001980068406830B1FFE7019800684268AA
:104BF0000099904702E0FFE7FFE7FFE702B080BDC2
:104C000080B588B007900798806A0690069810BB18
:104C1000FFE707990A8A888A1044888207994A8A96
:104C2000C88A1044C882079811F0C2FD0690069801
:104C300008B9FFE7BDE0079816F082FC0698092145
:104C4000002223F06FFB079840784008C00708B1A6
:104C5000FFE7AEE0FFE70798B0F9100038B9FFE7CB
:104C60000798B0F91200002800F0A380FFE70020A9
:104C7000ADF81600ADF81400079890F83C0000F06D
:104C80000F0003281CD1FFE706982BF07FFDADF83D
:104C9000120006982BF0B6FCADF8100006980799A4
:104CA000B1F91010BDF91020BDF91230EE464FF0E9
:104CB000030CCEF800C010F099FAADF816001BE016
:104CC00006982BF047FEADF80E0006982BF0B0FBCF
:104CD000ADF80C0006980799B1F91210BDF90E2035
:104CE000BDF90C30EE464FF00C0CCEF800C010F0C1
:104CF0007DFAADF81400FFE706982BF037FC8DF82D
:104D00000B009DF80B00C00748B9FFE7BDF916007E
:104D1000012804DBFFE70020ADF81600FFE79DF84F
:104D20000B00800700280AD4FFE7BDF91600B0F198
:104D3000FF3F04DCFFE70020ADF81600FFE79DF819
:104D40000B004007002809D4FFE7BDF91400012833
:104D500004DBFFE70020ADF81400FFE79DF80B002F
:104D6000000700280AD4FFE7BDF91400B0F1FF3FA7
:104D700004DCFFE70020ADF81400FFE707980DF111
:104D8000160105AA3AF044FE0698BDF91610BDF9C1
:104D90001420002330F01CFDBDF816200799888AE6
:104DA00010448882BDF814200799C88A1044C8822C
:104DB000FFE708B080BD000080B58EB00D900D9863
:104DC000806A0C900C9808B9FFE796E10D9890F86E
:104DD0003C00000708B9FFE78FE125F0C5FD0B9007
:104DE0000B980068407EADF82A000C9840212EF008
:104DF0005FFE30B9FFE70D99002048830D990883C5
:104E0000FFE70C982BF07AFD8DF829000C982BF019
:104E10008BFD8DF828000D9890F83C0000F00F00F5
:104E20000C2865D1FFE70D99002008839DF8280024
:104E3000B0BBFFE70D99B1F91A00BDF92A20C2F104
:104E40006402504348F21F52C5F2EB1250FB02F2CB
:104E5000500900EBD27048830C982BF0E9FAADF8BA
:104E600026000C982BF076FDADF824000C980D99D7
:104E7000B1F91A10BDF92420BDF92630EE464FF0E5
:104E80000C0CCEF800C010F0B1F90D9948830C98C5
:104E90000D99B1F91A200023194630F099FC26E04B
:104EA0000D983AF045FEADF822000D9800210391CF
:104EB00041830D980DF122023AF0AAFD0C98BDF93C
:104EC00022304EF20101CFF6FF7141F6FF7211F070
:104ED00013FF0399ADF820000C98BDF82220BDF80F
:104EE00020301A4412B2012330F072FCFFE76DE06B
:104EF0000D9890F83C0000F00F00032865D1FFE703
:104F00000D99002048839DF82900B0BBFFE70D995B
:104F1000B1F91800BDF92A20C2F16402504348F2E9
:104F20001F52C5F2EB1250FB02F2500900EBD27097
:104F300008830C982BF066FBADF81E000C982BF044
:104F400025FCADF81C000C980D99B1F91810BDF9AD
:104F50001E20BDF91C30EE464FF0030CCEF800C009
:104F600010F044F90D9908830C980D99B1F91810B7
:104F700000231A4630F02CFC26E00D983AF0A2FDF2
:104F8000ADF81A000D980022029202830D980DF1DF
:104F90001A013AF03DFD0C98BDF91A304EF20101AC
:104FA000CFF6FF7141F6FF7211F0A4FD029AADF841
:104FB00018000C98BDF81810BDF81A30194409B241
:104FC000012330F005FCFFE7FFE7FFE70D98B0F99C
:104FD0001800002840F09180FFE70D98B0F91A0002
:104FE000002840F08A80FFE79DF82800A8BBFFE773
:104FF0000C982BF0AFFCADF816000C982BF018FABB
:10500000ADF81400BDF91600002805DCFFE7BDF976
:105010001400012820DBFFE7BDF91600B0F1FF3FC7
:1050200008DCFFE70C98BDF916200021012330F0C1
:10503000CFFB10E0BDF91400B0F1FF3F0ADCFFE741
:105040000C98BDF8141049420AB20021012330F037
:10505000BFFBFFE7FFE7FFE7FFE79DF82900A8BBDD
:10506000FFE70C982BF0CEFAADF812000C982BF05D
:105070008DFBADF81000BDF91200002805DCFFE73C
:10508000BDF91000012820DBFFE7BDF91200B0F1E7
:10509000FF3F08DCFFE70C98BDF912100022012346
:1050A00030F096FB10E0BDF91000B0F1FF3F0ADCD4
:1050B000FFE70C98BDF81010494209B20022012305
:1050C00030F086FBFFE7FFE7FFE7FFE70C980B9A5E
:1050D0000A2123F027F90D9840784008C00708B14D
:1050E000FFE70AE00D9991F83C0000F0F00081F82C
:1050F0003C000D9900208862FFE70EB080BD0000E3
:1051000080B588B007900691079820B9FFE71EF098
:1051100021FB0790FFE7079808B9FFE78FE00698A3
:1051200028B9FFE707990020A1F8540187E0002083
:10513000ADF81000ADF8120007981EF037FB0138EB
:10514000ADF8140007981EF0EDFB0138ADF816001D
:10515000069902A804AAFDF709FF8DF807009DF83B
:105160000700C00708B9FFE769E007980068006911
:105170004008C00770B1FFE707990498059A8A6351
:10518000486307990120A1F854010798406836F058
:10519000E3FD54E007980068806930B1FFE70798A5
:1051A0000068826902A99047FFE70020ADF804007B
:1051B000FFE7BDF804000799B1F85411884215DAE9
:1051C000FFE70798BDF8041000EBC10000F13401BF
:1051D00002A80022FDF744FF08B1FFE72FE0FFE738
:1051E000BDF804000130ADF80400E2E70798B0F81C
:1051F00054011F280ADCFFE70798B0F8541100EBB0
:10520000C100343002A919F043FB0DE007990020DA
:10521000A1F854010798B0F8541100EBC1003430E4
:1052200004A919F035FBFFE70799B1F854010130E3
:10523000A1F854010798406836F08EFDFFE708B0EA
:1052400080BD000080B584B00390039800F018F88A
:10525000029000200190FFE7029878B1FFE70398E1
:10526000029900F037F801900398029900F0F0F8E5
:10527000029828F0F5FA01980290EDE704B080BD9D
:1052800082B00090009818B9FFE70020019003E079
:10529000009840680190FFE7019802B07047000055
:1052A00080B584B00390002002900398FFF7E8FFD8
:1052B0000190FFE7019850B1FFE70298013002909A
:1052C000FFE70398019900F005F80190F2E70298D2
:1052D00004B080BD83B002900191019800900298C3
:1052E000006800990844043000900098006803B0FA
:1052F0007047000083B002900191019800900298DD
:1053000001680098084400900098006803B0704756
:1053100082B00090009818B9FFE70020019003E0E8
:10532000009880680190FFE7019802B07047000084
:1053300082B0019000910199002048600199886035
:105340000098033020F00300009000980199086055
:1053500002B0704780B582B00190019800680830B3
:1053600028F0FCF80090009800B3FFE7019800993E
:10537000002238F0E9FB01980099426838F0C8FB38
:105380000198406830B1FFE701984168009A38F011
:10539000DBFBFFE70098019948600198806820B91D
:1053A000FFE7009801998860FFE7FFE7009802B0E7
:1053B00080BD000080B582B001900198006808307F
:1053C00028F0CCF80090009800B3FFE7019800990E
:1053D000002238F09DFB01980099826838F0B4FBF8
:1053E0000198806830B1FFE701988168009A38F031
:1053F0008FFBFFE70098019988600198406820B909
:10540000FFE7009801994860FFE7FFE7009802B0C6
:1054100080BD000082B00090009820B9FFE7012015
:105420008DF807000FE00098406840B9FFE700984A
:10543000806820B9FFE701208DF8070003E0002015
:105440008DF80700FFE79DF8070002B070470000E5
:1054500080B584B003900291039808B9FFE74DE04E
:105460000398FFF70DFF0299884215D1FFE70398D3
:105470000299FFF72FFF039948600398406820B90D
:10548000FFE703990020886005E003984168002247
:1054900038F05AFBFFE731E00398FFF739FF029934
:1054A000884215D1FFE703980299FFF723FF03997C
:1054B00088600398806820B9FFE70399002048605E
:1054C00005E003988168002238F022FBFFE714E032
:1054D00003980299FFF70EFF019003980299FFF7D6
:1054E000F9FE009003980199009A38F011FB039897
:1054F0000099019A38F028FBFFE7FFE704B080BD70
:1055000080B582B0019001980068806828B1FFE7FB
:105510000199086882689047FFE701980068006871
:1055200040B1FFE701990868006808600198FFF73B
:10553000E7FFFFE702B080BD82B00090009880686E
:1055400030B1FFE700988068C08AADF8060003E03C
:105550000020ADF80600FFE7BDF9060002B0704775
:1055600080B59EB0DDF880C01D901C91ADF86E2016
:10557000ADF86C301D99488C40F004004884BDF8AB
:105580006E001D9908841D981C99209A12892DF08F
:105590000FFD1990BDF86C001D9908841D981C9989
:1055A000209A12892DF004FD18901D99488C20F046
:1055B000040048841998189988420DD1FFE719987A
:1055C0001899884208D1FFE7BDF86400BDF8601063
:1055D000884201D1FFE7DCE0BDF86E001D99088428
:1055E0001D981C99209A12892DF0E2FC17901798AB
:1055F0001990BDF86C001D9908841D981C9913F032
:10560000B3FE16901698006820990989199A34F00B
:105610004DF920980089602856D1FFE7199847F680
:10562000FF71884206D0FFE7189847F6FF7188425D
:1056300049D1FFE71D982EF0A5F900EBD070400886
:10564000ADF856001D982EF09DF900EBD070400883
:10565000ADF85400199847F6FF71884216D1FFE75C
:10566000BDF956000130BDF954100131884205DA08
:10567000FFE7BDF956000130049004E0BDF9540085
:1056800001300490FFE704981990FFE7189847F657
:10569000FF71884216D1FFE7BDF956000130BDF910
:1056A00054100131884205DAFFE7BDF95600013098
:1056B000039004E0BDF9540001300390FFE7039824
:1056C0001890FFE7FFE7FFE740F27430C2F20000F6
:1056D000FFF740FE1A90FFE71A9820B9FFE7FFE7AF
:1056E000FFE7FFE7FEE7FFE71A9808B9FFE750E09A
:1056F0001A991998C8601A99189808611A98002878
:1057000047D0FFE71D981A990860209800891A99D8
:1057100088801C981A99886005A8029017F004FDEB
:1057200002981A9917F07AFF029844F26131C0F694
:10573000040117F0D5FD029844F2D961C0F60401C6
:1057400017F09CFE029844F2A151C0F6040117F034
:1057500047FE029800210191FF2217F0E7FE029810
:105760002099098817F09AFE02982099498817F025
:1057700093FD02982099C96817F0F2FD01990298EB
:1057800017F094FD0298209909690A9117F0A6FF75
:10579000FFE71EB080BD000080B540F27430C2F259
:1057A00000001421FFF7C4FD80BD000080B58AB061
:1057B0000890ADF81E10ADF81C2000208DF81B00DD
:1057C0000590FFE705980899498CC1F3C501884207
:1057D00080F0EA81FFE70898C068059900EBC100F6
:1057E0004068400EC00708B1FFE7D9E10898C068DB
:1057F000059900EBC100406820F07F4030F0FAFED0
:10580000ADF81200BDF81200BDF81E108843B0FAC2
:1058100080F040098DF81100BDF81200BDF81C1091
:105820008843B0FA80F040098DF810009DF811000F
:1058300000F001009DF8101001F00101884200F015
:10584000AE81FFE70898C068059950F831000390D1
:1058500000208DF80700039841F6100102AA33F0EA
:1058600001FB20B1FFE701208DF80700DCE0039881
:1058700041F6110102AA33F0F5FA20B1FFE7012049
:105880008DF80700CFE0039841F6120102AA33F029
:10589000E9FA20B1FFE701208DF80700C2E0039884
:1058A00041F6130102AA33F0DDFA20B1FFE701202F
:1058B0008DF80700B5E0039841F6150102AA33F010
:1058C000D1FA20B1FFE701208DF80700A8E0039886
:1058D00041F6140102AA33F0C5FA20B1FFE7012016
:1058E0008DF807009BE0039841F2690102AA33F0AA
:1058F000B9FA20B1FFE701208DF807008EE0039888
:1059000043F20C0102AA33F0ADFA20B1FFE7012007
:105910008DF8070081E0039843F20D0102AA33F0ED
:10592000A1FA20B1FFE701208DF8070074E0039889
:1059300041F2010102AA33F095FA20B1FFE70120FC
:105940008DF8070067E0039841F2040102AA33F0E2
:1059500089FA20B1FFE701208DF807005AE003988B
:1059600041F2020102AA33F07DFA20B1FFE70120E3
:105970008DF807004DE0039841F2030102AA33F0CD
:1059800071FA20B1FFE701208DF8070040E003988D
:1059900041F2050102AA33F065FA20B1FFE70120C8
:1059A0008DF8070033E0039841F2060102AA33F0B4
:1059B00059FA20B1FFE701208DF8070026E003988F
:1059C00041F2320102AA33F04DFA20B1FFE7012083
:1059D0008DF8070019E0039843F60F0102AA33F08F
:1059E00041FA20B1FFE701208DF807000CE0039891
:1059F00043F60E0102AA33F035FA20B1FFE7012089
:105A00008DF80700FFE7FFE7FFE7FFE7FFE7FFE7A6
:105A1000FFE7FFE7FFE7FFE7FFE7FFE7FFE7FFE756
:105A2000FFE7FFE7FFE7FFE79DF80700C00720B1AA
:105A3000FFE703208DF82700BBE0039840F60A013A
:105A400002AA33F00FFA20B1FFE702208DF81B0005
:105A5000A4E0039840F60B0102AA33F003FA20B148
:105A6000FFE702208DF81B0097E0039843F60F0133
:105A700002AA33F0F7F920B1FFE702208DF81B00EE
:105A80008AE0039843F60E0102AA33F0EBF920B145
:105A9000FFE702208DF81B007DE0039840F63C01F3
:105AA00002AA33F0DFF920B1FFE702208DF81B00D6
:105AB00070E0039840F63D0102AA33F0D3F920B11B
:105AC000FFE702208DF81B0063E0039840F63A01DF
:105AD00002AA33F0C7F920B1FFE702208DF81B00BE
